{
  "abi": [
    {
      "type": "constructor",
      "inputs": [
        {
          "name": "arbiter_",
          "type": "address",
          "internalType": "address"
        },
        {
          "name": "beneficiary_",
          "type": "address",
          "internalType": "address"
        }
      ],
      "stateMutability": "payable"
    },
    {
      "type": "function",
      "name": "approve",
      "inputs": [],
      "outputs": [],
      "stateMutability": "nonpayable"
    },
    {
      "type": "function",
      "name": "arbiter",
      "inputs": [],
      "outputs": [
        {
          "name": "",
          "type": "address",
          "internalType": "address"
        }
      ],
      "stateMutability": "view"
    },
    {
      "type": "function",
      "name": "beneficiary",
      "inputs": [],
      "outputs": [
        {
          "name": "",
          "type": "address",
          "internalType": "address"
        }
      ],
      "stateMutability": "view"
    },
    {
      "type": "function",
      "name": "depositor",
      "inputs": [],
      "outputs": [
        {
          "name": "",
          "type": "address",
          "internalType": "address"
        }
      ],
      "stateMutability": "view"
    },
    {
      "type": "function",
      "name": "isApproved",
      "inputs": [],
      "outputs": [
        {
          "name": "",
          "type": "bool",
          "internalType": "bool"
        }
      ],
      "stateMutability": "view"
    },
    {
      "type": "event",
      "name": "Approved",
      "inputs": [
        {
          "name": "balance",
          "type": "uint256",
          "indexed": false,
          "internalType": "uint256"
        }
      ],
      "anonymous": false
    },
    {
      "type": "error",
      "name": "ArbiterOnly",
      "inputs": []
    }
  ],
  "bytecode": {
    "object": "0x60806040526040516102b23803806102b28339810160408190526100229161007a565b600080546001600160a01b03199081163317909155600280546001600160a01b03948516908316179055600180549290931691161790556100ad565b80516001600160a01b038116811461007557600080fd5b919050565b6000806040838503121561008d57600080fd5b6100968361005e565b91506100a46020840161005e565b90509250929050565b6101f6806100bc6000396000f3fe608060405234801561001057600080fd5b50600436106100575760003560e01c806312424e3f1461005c57806328f371aa1461006657806338af3eed1461008f578063c7c4ff46146100ba578063fe25e00a146100cd575b600080fd5b6100646100e0565b005b60025461007a90600160a01b900460ff1681565b60405190151581526020015b60405180910390f35b6001546100a2906001600160a01b031681565b6040516001600160a01b039091168152602001610086565b6000546100a2906001600160a01b031681565b6002546100a2906001600160a01b031681565b6002546001600160a01b0316331461010b5760405163d14f869f60e01b815260040160405180910390fd5b60015460405147916000916001600160a01b039091169083908381818185875af1925050503d806000811461015c576040519150601f19603f3d011682016040523d82523d6000602084013e610161565b606091505b505090508061016f57600080fd5b6002805460ff60a01b1916600160a01b1790556040517f3ad93af63cb7967b23e4fb500b7d7d28b07516325dcf341f88bebf959d82c1cb906101b49084815260200190565b60405180910390a1505056fea264697066735822122051b73c34bcb3ec3d359a11c1bce0196724b74d8637e1230cad3d38ccd49ae58264736f6c63430008140033",
    "linkReferences": {}
  },
  "methodIdentifiers": {
    "approve()": "12424e3f",
    "arbiter()": "fe25e00a",
    "beneficiary()": "38af3eed",
    "depositor()": "c7c4ff46",
    "isApproved()": "28f371aa"
  },
  "id": 23
}